:020000040800F2
:1000000060050020A10100085B1D0008751A0008AA
:10001000591D0008D902000815240008000000003E
:10002000000000000000000000000000091F0008A0
:10003000DB020008000000005D1D00080B1F000827
:10004000BB010008BB010008BB010008BB010008A0
:10005000BB010008BB010008BB010008BB01000890
:10006000BB010008BB010008BB010008BB01000880
:10007000BB010008BB010008BB010008BB01000870
:10008000BB010008BB010008BB010008BB01000860
:10009000BB010008BB010008BB010008BB01000850
:1000A000BB010008BB010008BB010008BB01000840
:1000B000BB0100080000000000000000BB010008B8
:1000C000BB0100080000000000000000BB010008A8
:1000D00000000000D92300080924000800000000E7
:1000E000BB010008BB010008000000000000000088
:1000F0000000000000000000000000000000000000
:10010000000000000000000000000000BB0100082B
:100110000000000000000000BB010008BB01000857
:10012000BB010008BB010008BB010008BB010008BF
:10013000BB010008000000000000000000000000FB
:10014000BB010008BB010008BB010008BB0100089F
:10015000BB010008BB010008BB010008BB0100088F
:10016000BB010008BB010008BB0100080000000043
:10017000BB010008BB0100080000000000000000F7
:10018000BB010008BB010008BB010008DFF80CD070
:1001900000F090F800480047C524000860050020E2
:1001A0000648804706480047FEE7FEE7FEE7FEE711
:1001B000FEE7FEE7FEE7FEE7FEE7FEE7751F000845
:1001C0008D0100082DE9F05F0546002092469B4610
:1001D00088460646814640241BE02846414647465D
:1001E000224600F056F853465A46C01A914110D3A1
:1001F00011461846224600F03DF82D1A67EB01081B
:100200004F4622460120002100F034F817EB000988
:100210004E41201EA4F10104DFDC484631462A4647
:10022000434600F000B830BCBDE8C09F40EA01037F
:100230009B0703D009E008C9121F08C0042AFAD29C
:1002400003E011F8013B00F8013B521EF9D2704760
:10025000D2B201E000F8012B491EFBD27047002208
:10026000F6E710B513460A4604461946FFF7F0FFB5
:10027000204610BD202A04DB203A00FA02F10020BB
:1002800070479140C2F1200320FA03F319439040D4
:100290007047202A04DB203A21FA02F0002170473F
:1002A00021FA02F3D040C2F12002914008431946DE
:1002B00070470000064C074D06E0E06840F001037F
:1002C00094E8070098471034AC42F6D3FFF762FF7A
:1002D000F0290008102A0008FEE7704710B590F8D2
:1002E00025100024022903D00421C16301241AE04F
:1002F00001680A6822F00E020A6001680A6822F0AA
:1003000001020A6090F84410036C01F01C02012104
:1003100001FA02F25A6080F82510002180F82410BA
:10032000816B01B18847204610BD000070B50446BE
:1003300000F0ECF80546601C02D004484068044414
:1003400000F0E4F8401BA042FAD370BD0400002086
:100350002DE9FC4FDFF880A1002301250AF1040BF1
:1003600003244FF00F0C0BF1040EAEE005FA03F678
:1003700032406FD04F68012F05D0022F03D0112FCC
:1003800001D0122F17D1D0F808905F0004FA07F8B7
:1003900029EA08090097D1F80C8008FA07F848EA1A
:1003A0000908C0F808804768B7430E79C6F30016FD
:1003B0009E403E434660C6684FEA430804FA08F789
:1003C000BE4301978F6807FA08F73743C7604E6846
:1003D000022E01D0122E13D1DE0800EB8606009605
:1003E000366A5F07FF0E0CFA07F926EA0906D1F80C
:1003F000109009FA07F949EA0609009EC6F820900C
:100400000768019EB7430E7906F0030606FA08F660
:100410003E4306604E68F60056D5304E376E47F0C4
:1004200001073766366E23F0030706F001060096D3
:100430002B4E3E44B146B6689F074FEA17780CFA38
:1004400008F7BE43B0F1904F05D0264FB84204D113
:10045000012708E038E0002705E0234FB84201D12A
:10046000022700E0072707FA08F73743C9F80870A2
:10047000DAF800605746D1F8048096435FEAC8383E
:1004800000D516433E60DBF800605F46D1F804807B
:1004900096435FEA883800D516433E60DEF8006078
:1004A0007746D1F8048096435FEAC82800D5164302
:1004B0003E60094F0C373E68D1F8048096435FEAEE
:1004C000882800D516433E605B1C0A6832FA03F6A2
:1004D0007FF44CAF00F00AB8000401400010024065
:1004E0000000014000040048000800481CBCBDE8B2
:1004F000E08F42690A4201D0816270478161704792
:100500000AB18161704781627047000001488068CC
:10051000704700000400002090F84120202A24D1D8
:1005200090F84020012A20D0012280F84020242287
:1005300080F841200268136823F001031360026809
:10054000136823F480531360026813680B4313602D
:1005500001680A6842F001020A60202180F8411017
:10056000002180F84010084670470220704790F83C
:100570004120202A22D190F84020012A1ED00122B9
:1005800080F84020242280F841200268136823F07C
:10059000010313600268136823F4706343EA0121C6
:1005A000116001680A6842F001020A60202180F8A7
:1005B0004110002180F84010084670470220704723
:1005C00070B5040004D094F84100002510B106E095
:1005D000012070BD84F84050204600F00FFA24201E
:1005E00084F841002068016821F001010160606821
:1005F000216820F0706008612068816821F4004162
:100600008160E0680128A06807D040F404402168B8
:100610008860E068022803D006E040F40040F6E776
:1006200021684FF40060486020684168114A114316
:1006300041602068C16821F40041C160D4E904012F
:100640000843A16940EA01202168C860D4E9070194
:100650000843216808602068016841F001010160D9
:100660006564202084F84100256384F8425000200E
:1006700070BD0000008000022DE9FC470026044602
:10068000019690F841001F469246894620287ED167
:1006900020688069C043000479D594F8400001289F
:1006A00075D0012084F84000242084F8410066645D
:1006B0004FF02008E068012809D029F4544040F4A4
:1006C000205021684860FFF721FF05460DE03149C1
:1006D00049EA010030490840F3E7781C05D0FFF7EC
:1006E00015FF401BB84219D8C7B1216888698969CC
:1006F000C0F34010C1F300110843EED020688069B8
:100700003B46C043C0064FF000024FF02001204698
:10071000009517D501F018FA68BB09E084F841800C
:1007200054F8440F40F0200044F80409267022E0F9
:100730002168C1F81C8084F8418084F84060002062
:1007400000F02CB801F000FAA8B921681020C861A7
:100750002168C1F81C800198504512D12068416879
:1007600041F4804141603B46002220212046009513
:1007700001F0EAF910B10120E2E708E02168C1F8D0
:100780001C800198401C0190504593D3C6E702207D
:10079000D6E7000000200002FF2300020CBCBDE8E9
:1007A000F08700002DE9F84F044690F84100DDF88D
:1007B00028A01F4690468B4620287ED194F8400002
:1007C00001287AD0012084F84000FFF79FFE0646FA
:1007D000012200901923D103204601F0B5F9E0BBB6
:1007E000222084F84100102084F84200002565642E
:1007F000C4F8248067856563618D3148FF274FF019
:1008000080784FF00079FF2903D927853A46009078
:1008100039E0618D218500903AE05946204601F08B
:100820007DF913E001F0BCF9B8B92068406A616A4B
:100830000870606A401C6062208D401E80B2208576
:10084000618D491E6185618D01B168B1608D32464F
:10085000002851462046E5D100E002E001F0E2F92F
:10086000D0B1012000F030B853460022802120464C
:10087000009601F069F90028F3D1608DFF2804D9B2
:1008800027853A4600954346C7E7608D2085009549
:1008900094F828204B46C0E721682020C8612168D1
:1008A0004A68084B1A404A6084F8410084F8425074
:1008B00084F840500020D5E7FFE70220D2E700008F
:1008C0000024008000E800FE18BCBDE8E08F0000B6
:1008D0002DE9F84F044690F84100DDF828A01F46A6
:1008E00090468B4620287ED194F8400001287AD08B
:1008F000012084F84000FFF709FE0646012200901F
:100900001923D103204601F01FF9E0BB212084F810
:100910004100102084F8420000256564C4F824805A
:1009200067856563618D3148FF274FF080784FF010
:100930000079FF2903D927853A46009039E0618D77
:10094000218500903AE05946204601F0E7F813E08F
:1009500001F08EF9B8B9606A216800788862606A2F
:10096000401C6062608D401E6085208D401E80B2FC
:100970002085618D01B168B1608D324600285146F5
:100980002046E5D100E002E001F04CF9D0B10120B1
:1009900000F030B85346002280212046009601F036
:1009A000D3F80028F3D1608DFF2804D927853A4673
:1009B00000954346C7E7608D2085009594F8282070
:1009C0004B46C0E721682020C86121684A68084B6F
:1009D0001A404A6084F8410084F8425084F840503C
:1009E0000020D5E7FFE70220D2E7000000200080CA
:1009F00000E800FE18BCBDE8E08F000010B586B02E
:100A0000044614216846FFF72AFC134920688842EF
:100A100020D1124CE06C40F00100E064E06C6946CB
:100A200000F0010005904FF4C0600090122001908A
:100A30000120029003200390042004904FF0904086
:100A4000FFF786FCA06D40F40010A065A06D00F4D7
:100A50000010059006B010BD005400400010024088
:100A60000248816842681144816070470400002098
:100A700010B50024032000F071F8002000F008F801
:100A800008B1012401E000F025F8204610BD000067
:100A900070B50E4E05460024706898B14FF47A7117
:100AA000B1FBF0F00A490968B1FBF0F000F0A6FDD7
:100AB00040B9102D06D200222946501E00F02EF813
:100AC000356000E00124204670BD000004000020D5
:100AD00010000020094808B5016E41F001010166CF
:100AE000016E01F001010091816D41F0805181653D
:100AF000806D00F08050009008BD000000100240A2
:100B0000002809DB00F01F0201219140400980000C
:100B100000F1E020C0F8001170470000F0B40E4B67
:100B20001B680C46C3F30223C3F10705042D00D94B
:100B30000425191D072901D2002300E0DB1E012630
:100B400006FA05F1491E214099409E40761E164046
:100B50003143F0BC01F05FBC0CED00E0064900F051
:100B6000070208684FF6FF03184040EA0220034AD4
:100B700010430860704700000CED00E00000FA052B
:100B80001649B0F5007F0868C0F3412009D002285B
:100B900005D0086820F4C06040F480600860002040
:100BA00070470128FBD0086820F4C06040F4007052
:100BB00008600B483222006850430A4AB0FBF2F04A
:100BC000401C00E0401E4A69520501D50028F9D1B9
:100BD00048694005E3D503207047000000700040DD
:100BE0001000002040420F000248006800F4C0607E
:100BF00070470000007000402DE9F84F04460027C0
:100C000000889C4D3E46000515D5E06B60B1B0F5FF
:100C1000000F04D0B0F5400F2BD001270AE0E868A0
:100C200040F48030E86024E00021201D01F098F8B5
:100C300007001ED03E462068800338D5A86D4FF0CF
:100C40000008C00009D4A86D40F08050A865A86DC8
:100C50004FF0010800F080500090DFF81CA2DAF895
:100C6000001041F48071CAF80010FFF74FFC814674
:100C700010E0D5F88800E16B20F440000843C5F887
:100C80008800D8E7FFF742FCA0EB0900022801D951
:100C9000032704E0DAF80000C005F3D5EFB33E46C1
:100CA000B8F1000F03D0A86D20F08050A86520781F
:100CB000C00707D0D5F88800216A20F00300084358
:100CC000C5F888002078800707D5D5F88800616AC4
:100CD00020F00C000843C5F888002078800607D56E
:100CE000D5F88800A16A20F440600843C5F8880060
:100CF0002088800507D5D5F88800616B20F4402056
:100D00000843C5F888002088400509D5D5F8880033
:100D1000A16B20F44010084300E02EE0C5F88800E5
:100D20002078400607D5D5F88800E16A20F44050C5
:100D30000843C5F888002088C00507D5D5F8880085
:100D4000216B20F440300843C5F8880020884FF01C
:100D5000006780044FF080684ED5D5F88800216C7C
:100D600020F040600843C5F88800206CB8423BD1B1
:100D7000E86840F48010E8603EE0D5F8900010F498
:100D8000407014D0216D814211D0D5F89000D5F873
:100D9000901020F4407041F48031C5F89010D5F8DF
:100DA000901021F48031C5F89010C5F89000C0076C
:100DB00011D0FFF7ABFB074641F2883907E000BFCF
:100DC000FFF7A4FBC11B494501D9032668E7D5F805
:100DD00090008007F4D5D5F89000216D20F4407084
:100DE0000843C5F890005BE7404505D10121201D6F
:100DF00000F0B6FF00B106462068400317D5D5F8CD
:100E00008800616C20F040600843C5F88800606C81
:100E1000B84204D1E86840F48010E86007E040453B
:100E200005D10121201D00F09BFF00B1064620885E
:100E3000400411D5D5F88800A16C20F0405008433B
:100E4000C5F88800A06CB0F1805F05D10221201D9B
:100E500000F086FF00B106462088000406D555F84C
:100E6000880FE16C20F0804008432860304600F095
:100E700005B80000001002400070004018BCBDE83A
:100E8000E08F00002DE9F0470F46050058D0404E96
:100E9000306800F00700B84209D2306820F007003F
:100EA00038433060306800F00700B84248D12878F5
:100EB000384CC0072CD06868032811D0022812D003
:100EC000216898B1490500293ADAA16821F00301A7
:100ED0000143A160FFF71AFB804641F2883910E018
:100EE00021688901EFE721688903ECE78907EAE7D0
:100EF000FFF70CFBA0EB0801494502D90320BDE830
:100F0000F087A068696800F00C00B0EB810FEFD1AA
:100F10002878800705D5A068A96820F0F00008436C
:100F2000A060306800F00700B8420BD9306820F0AC
:100F3000070038433060306800F00700B84201D045
:100F40000120DCE72878400705D5A068E96820F48F
:100F5000E0600843A0602878000706D5A0682969EA
:100F600020F4605040EAC100A06000F03FF8A168A2
:100F7000094AC1F30311515C01F01F01C840074940
:100F8000086007480068BDE8F047FFF781BD000032
:100F90000020024000100240A82900081000002094
:100FA000040000200548064900688968054AC1F325
:100FB0000221515C01F01F01C84070471000002061
:100FC00000100240E82900080548064900688968C1
:100FD000054AC1F3C221515C01F01F01C8407047AE
:100FE0001000002000100240E829000870B52549D3
:100FF000002318468A68CC6812F00C0204F003063D
:10100000214C4FEA640509D00C2A05D0042A32D0BD
:10101000082A00D1284670BD012E10D10B681B078D
:1010200004D4D1F89430C3F3032302E00B68C3F374
:101030000313164E56F82330DAB10C2AEBD1C868E8
:1010400000F00300022818D0032818D01846CA68F8
:10105000CB68C2F30212C3F306234343521CB3FB13
:10106000F2F2C868C0F34160401C4000B2FBF0F0EF
:1010700070BD184670BD204670BD2046E7E7284683
:10108000E5E70000001002400024F400B829000841
:101090002DE9F84304006FD0FE4DA86800F00C065F
:1010A000E86800F003072078C00664D576B10C2EFE
:1010B00001D1012F0AD0A069002828687AD040F019
:1010C00001002860FFF722FA80465DE0286880076B
:1010D00002D5A0690028DED0216A2868000703D560
:1010E000286800F0F00004E0D5F89400F02202EA4D
:1010F0001010814216D9084600F0C8FE00283BD1E6
:10110000286840F0080028602868216A20F0F00074
:10111000084328606868E16920F47F4040EA0120C4
:10112000686016E0286840F0080028602868216A96
:1011300020F0F000084328606868E16920F47F40EF
:1011400040EA0120686026B9206A00F09FFE00286E
:10115000D5D1FFF74BFFA968CF4AC1F30311515C0A
:1011600001F01F01C840CD490860CD480068FFF775
:101170008FFC00287ED12EE0CAE000BFFFF7C6F941
:10118000A0EB0800022876D828688007F6D52868E2
:1011900040F0080028602868216A20F0F000084329
:1011A00028606868E16920F47F4040EA01206860B7
:1011B00011E0FFE720F001002860FFF7A7F9804663
:1011C00006E000BFFFF7A2F9A0EB08000228DAD87A
:1011D00028688007F6D42078C00740D0082E18D0A1
:1011E0000C2E01D1032F14D06068B0F5803F17D0CA
:1011F000B0F5A02F286817D020F480302860286828
:1012000020F4802028606068E0B1FFF77FF9804615
:1012100014E02868800322D56068002878D01EE09A
:10122000286840F48030EDE740F480202860F7E73C
:10123000FFF76CF9A0EB08006428A4D828688003A5
:10124000F6D50CE0FFF762F9804605E0FFF75EF99E
:10125000A0EB0800642896D828688003F6D420788C
:1012600080073BD5042E11D00C2E01D1022F0DD0BA
:10127000E06801E0B6E1FFE0002828681ED040F4F5
:1012800080702860FFF742F907460CE028684005A7
:101290000CD5E0680028C1D008E000BFFFF736F9A0
:1012A000C01B022893D828684005F7D56868217CC0
:1012B00020F0F85040EA016068600FE020F4807090
:1012C0002860FFF723F9074605E000BFFFF71EF986
:1012D000C01B0228B1D828684005F7D42078000741
:1012E00029D560690028D5F8940012D040F001009B
:1012F000C5F89400FFF70AF9074604E0FFF706F97E
:10130000C01B022899D8D5F894008007F6D512E0C2
:101310002BE120F00100C5F89400FFF7F7F807462D
:1013200005E000BFFFF7F2F8C01B022885D8D5F80A
:1013300094008007F6D42078400766D5A86D002772
:10134000C00008D4A86D40F08050A865A86D0127A2
:1013500000F08050009053480168C90512D401681C
:10136000814641F480710160FFF7D0F8804605E0C6
:10137000FFF7CCF8A0EB080002287DD8D9F80000D0
:10138000C005F5D5A068012816D00528D5F890002D
:1013900017D020F00100C5F89000D5F8900020F09B
:1013A000040000BFC5F89000A06841F28839C0B1C0
:1013B000FFF7ACF880460FE0D5F8900040F0010050
:1013C000F0E740F00400C5F89000F5E7FFF79EF85D
:1013D000A0EB080149454FD8D5F890008007F5D516
:1013E0000EE0FFF793F8804606E000BFFFF78EF8A7
:1013F000A0EB080149453FD8D5F890008007F5D407
:101400001FB1A86D20F08050A8652078800628D5EF
:10141000606A0028D5F8980012D040F00100C5F8A5
:101420009800FFF773F8074605E000BFFFF76EF876
:10143000C01B022820D8D5F898008007F6D510E008
:1014400020F00100C5F89800FFF760F8074604E0B7
:10145000FFF75CF8C01B02280ED8D5F8980080076B
:10146000F6D4A06AA8B1022824D00C2E7DD028681A
:1014700020F08070286000E0B3E02868000103D409
:10148000E86820F00300E860E86807490840E86081
:101490000CE09FE000100240A82900081000002086
:1014A0000400002000700040FFFFEEFEFFF72EF862
:1014B000044699E0E868E26A00F00301914226D10F
:1014C000216B00F070020901103991421FD1626B4B
:1014D00000F4FE41B1EB022F19D194F8382000F04E
:1014E0007841B1EBC26F12D1A18F00F4C00249085C
:1014F0004905A1F50011914209D194F8401000F07E
:10150000C06049084906A1F1007181424BD00C2E00
:101510006FD0286840016CD4286820F08070286063
:10152000FEF7F4FF064604E0FEF7F0FF801B0228FA
:1015300057D828688001F7D4F4E90B016FF00F0247
:1015400002EB01110843218A5204490802EB415180
:10155000A26841EA02210843217D4FF07E424908FA
:1015600002EB41610843217B00E042E040EAC160B8
:10157000E968214A11400843E860286840F080701B
:101580002860E86840F08070E860FEF7BFFF04461E
:1015900005E000BFFEF7BAFF001B022821D828682B
:1015A0008001F7D523E02868800120D4286840F026
:1015B00080702860E86840F08070E860FEF7A6FF61
:1015C000044604E0FEF7A2FF001B022809D82868A1
:1015D0008001F7D50BE000BFFEF798FF001B022843
:1015E00002D90320BDE8F88328688001F4D40020E4
:1015F000F8E70120F6E700008C809D0110B5401E41
:10160000B0F1807F01D3012010BD4FF0E024606174
:101610000F21601700F0FFFE0020A061072020616D
:10162000002010BD704770472DE9F0410268044664
:10163000D0691168936840F60F0528424FF0000505
:1016400005D186067BD58E0679D5216E88E003F01C
:10165000010601F49077374371D0C70707D0CF0553
:1016600005D501271762E26F42F00102E2678207A7
:1016700008D5DA0706D0276802223A62E26F42F004
:101680000402E267420708D5DA0706D0236804227D
:101690001A62E26F42F00202E26702070AD501F025
:1016A0002002324306D0236808221A62E26F42F019
:1016B0000802E267020509D54A0107D523684FF4FD
:1016C00000621A62E26F42F02002E267E26F002AD3
:1016D0002ED0800605D5880603D5216E09B1204697
:1016E0008847E06F21688968490602D410F0280F06
:1016F00020D0204600F0FAFC20688168490614D505
:10170000816821F040018160E06E70B11D49816304
:10171000E06EFEF7E3FD00280AD0E06E816B00E08A
:101720002046BDE8F041084709E02046FFF77BFF6F
:10173000BDE8F0812046FFF776FFE567F8E7C602CF
:1017400009D55B0207D54FF4801010622046BDE832
:10175000F041FFF767BF030605D50B0603D5616EA1
:101760000029DDD1E4E74006E2D54806E0D511685E
:10177000204621F04001116020216167656600F07C
:1017800078F9D5E7D920000810B5040002D0606FC1
:1017900010B107E0012010BD002084F87000204641
:1017A00000F026F8242060672068016821F001011C
:1017B0000160204600F0AAFC0128ECD0606A10B15C
:1017C000204600F0F9FB2068416821F49041416017
:1017D0002068816821F02A0181602068016841F059
:1017E000010101602046BDE8104000F049BC000046
:1017F000F0B587B0044614216846FEF730FD2E4B45
:10180000226800262D480225032407219A421FD171
:10181000026E42F480420266026E02F48042059239
:10182000C26C42F00202C264C06C00F0020005907B
:10183000CDE90341C0208DE8610069462048FEF7EC
:1018400087FD002211462520FFF768F925202EE0AC
:101850001C4B9A422DD1826D42F400328265826D1A
:1018600002F400320592C26C42F00102C264C06C04
:101870004FF0904700F001000590CDE903410420AE
:101880008DE8610069463846FEF762FD4FF400407E
:10189000CDE90005CDE90264694604943846FEF7B7
:1018A00057FD002211462620FFF738F92620FFF7C2
:1018B00027F907B0F0BD00000038014000100240D9
:1018C00000040048004400402DE9F84F0446806FB2
:1018D0009A4616460D4620286BD1EDB1E6B194F834
:1018E0007000012865D0012084F870004FF00008D6
:1018F000C4F87C802220A067FEF708FEA4F8586098
:101900008146A4F85A60A0684FF48053FF219842A2
:1019100008D122691AB11CE0012000F04CB840F255
:10192000FF1116E07F2290B1B0F1805F14D0A4F8CF
:101930005C8000BFB4F85C70984201D1206990B11E
:101940002E46002584F8708007F0FF0825E0266900
:1019500036B9A4F85C10EDE7216909B13F21F8E739
:10196000A4F85C20E6E70026ECE74B4600222021A5
:101970002046CDF800A000F0DDFC08B10320CCE744
:101980002068808C8EB100EA080006F8010B00BFC9
:10199000B4F85A00401EA4F85A00B4F85A000028BF
:1019A000E3D12020A0670020B7E7384025F8020BDC
:1019B000EEE70220B1E718BCBDE8E08F2DE9F8435F
:1019C0000446406F1F4616460D4620284FD1CDB124
:1019D000C6B194F87000012849D0012084F8700045
:1019E0004FF00008C4F87C8021206067FEF78EFD70
:1019F000A4F850608146A4F85260A068B0F5805FFA
:101A000003D004E00120BDE8F883206928B12E4608
:101A10005FF0000584F8708010E00026FAE780216E
:101A2000204600F087FCB8B9C6B116F8010B216852
:101A30000885B4F85200401EA4F85200B4F85200D1
:101A40004B464FF0000200970028E8D14FF04001CC
:101A5000204600F06FFC30B10320D4E735F8020BCC
:101A6000C0F30800E3E7202060670020CBE70220F6
:101A7000C9E77047FEE701688A69D243920701D43B
:101A800000228A6200688169C943C90703D081695D
:101A900041F00101816170472DE9F0410446006881
:101AA00090460E468069C043C00633D400252027E7
:101AB00020688069C043800615D5701CF8D0FEF7F9
:101AC00025FDA0EB0800B04201D8002EF0D154F85B
:101AD000440F40F0200044F804096770A570257099
:101AE0000120BDE8F08121681020C8612068C7612D
:101AF0002046FFF7C0FF54F8440B4168064A1140E6
:101B00004160206840F0040044F820096777A57719
:101B10002577E5E70020E4E700E800FEF0B505687A
:101B2000059C68684FF48066064FC1F3090106EA18
:101B3000545641EA02413E431943B043214308430E
:101B40006860F0BDFF63FF032DE9F0411D461746B5
:101B50000E460446DDF8188008E0681C06D0FEF743
:101B6000D5FCA0EB0800A8420BD855B120688069CD
:101B700036EA000012D00020B842EED00020BDE8C6
:101B8000F08154F8440F40F0200044F8040920206C
:101B900060700020A07020700120F0E70120EBE7CA
:101BA0002DE9F041002690460F460446202525E009
:101BB000424639462046FFF76FFF78BB20688069B0
:101BC000C043800613D420688169C943490701D402
:101BD000218DC1B9C56154F8440B4168104A1140C8
:101BE000416044F820696577A677267716E0FEF70E
:101BF0008DFCA0EB0800B84208D83FB1206880698E
:101C0000C0434007D4D40020BDE8F08154F8440F0D
:101C100040F0200044F80409657026700120F3E7C5
:101C200000E800FE70B516460D4604460DE032464B
:101C300029462046FFF730FF08B1012070BDFEF7AE
:101C400065FC801BA84207D835B120688069C04375
:101C50008006ECD4002070BD54F8440F40F0200002
:101C600044F80409202060700020A0702070E4E790
:101C700070B516460D4604460FE03246294620460A
:101C8000FFF70AFF08B1012070BD681C05D0FEF700
:101C90003DFC801BA84207D835B120688069C0434D
:101CA0008007EAD4002070BD54F8440F40F02000B3
:101CB00044F80409202060700020A0702070E2E742
:101CC0000E4810B50C49016040F6146141600021D6
:101CD0000122C0E90212016141618161C1610162B9
:101CE000FEF76EFC00210548FEF716FCBDE810402B
:101CF00000210248FEF73BBC0054004014000020C5
:101D00000948084901604FF4E131416000218160D8
:101D10000C22C160C0E904128161C16101624162AB
:101D2000FFF732BD00380140600000200948084933
:101D300001604FF4E1314160002181600C22C160FB
:101D4000C0E904128161C16101624162FFF71CBDFB
:101D500000440040E0000020FEE7704770470000AC
:101D60002DE9F041444C05468846E068002681078D
:101D700028680DD0E16801F00301814216D1A8B1B5
:101D8000E0686968C0F30210401C88420ED120E070
:101D9000012804D0022805D0032807D108E02168D3
:101DA000890701E021684905002907DB01265FE07A
:101DB0002168890302D421684903F5E7E1686A686C
:101DC0006FF00F0321F0730103EB02121143014383
:101DD000E160206820F080602060FEF797FB0746F6
:101DE00005E000BFFEF792FBC01B022837D8206831
:101DF0000001F7D4B8F1000F18D0B8F1010F1DD0D1
:101E0000287D4FF07E41400801EB4060A96840EA20
:101E100001202169194A114008432061206840F0DF
:101E200080602060FEF772FB07461AE0A868297BF5
:101E3000000240EAC1602169114AECE7288A114991
:101E4000400801EB4050A96840EA012021690E4A90
:101E5000E1E700BFFEF75AFBC01B022801D90326A9
:101E600006E020680001F5D52069A96908432061D2
:101E70003046BDE8F081000000100240FF80FFF90D
:101E8000FF80FF070000E0FFFF809FFFF8B51C4DBB
:101E900006460024A86DC00002D5FEF7A5FE0DE0A1
:101EA000A86D40F08050A865A86D00F080500090AB
:101EB000FEF79AFEA96D21F08051A965B0F5007F6B
:101EC00004D0802E07D94FF003040AE0802E08D9F1
:101ED000A02E01D804E001D1022402E0702E00D12E
:101EE00001240848016821F00701214301600068CE
:101EF00000F00700A04201D00120F8BD0020F8BD8D
:101F000000100240002002407047FEF7A9BD10B546
:101F1000ACB0442115A8FEF7A2F9142126A8FEF7BB
:101F20009EF954216846FEF79AF910201590012079
:101F30000024CDE91B0460201D901F9415A8FFF715
:101F4000A7F80F20CDE9260428942994002126A87B
:101F50002A94FEF797FF43200090089409940B946D
:101F60006846FEF749FE4FF40070FEF709FE2CB0FC
:101F700010BD00000D48016841F4700101600C487B
:101F8000016841F001010160002181600268094B94
:101F90001A4002608214C260026822F48022026049
:101FA00081610249C00380390860704788ED00E014
:101FB00000100240FFFFF6EA90F82410C90706D08F
:101FC00001684A68836A22F400321A434A6090F832
:101FD0002410890706D501684A68C36A22F4803252
:101FE0001A434A6090F82410490706D501684A68E8
:101FF000036B22F480221A434A6090F824100907E8
:1020000006D501684A68436B22F400421A434A60CD
:1020100090F82410C90606D501688A68836B22F4FB
:1020200080521A438A6090F82410890606D5016808
:102030008A68C36B22F400521A438A6090F8241015
:10204000490611D501684A68036C22F480121A43CC
:102050004A60016CB1F5801F06D101684A68436C83
:1020600022F4C0021A434A6090F82410090606D5EB
:1020700001684A68806C22F4002202434A6070477B
:10208000F8B500260446C667FEF740FA0546206804
:1020900000686FF07E47000708D52B4600224FF4FA
:1020A00000112046009700F045F960B920680068EB
:1020B00040070AD52B4600224FF4800120460097A6
:1020C00000F038F908B10320F8BD20206067A06750
:1020D00084F870600020F8BD10B5806A0021A0F877
:1020E0005A10A0F85210FFF79EFA10BD01680A6856
:1020F00022F490720A6001688A6822F001028A6004
:102100002021816700210166704700002DE9F04120
:10211000044600682369A268E5691A4363690027D9
:102120002B431A437A4903687A4D2B4013430360CB
:1021300020684268E36822F440521A4342602268F1
:10214000A0698A4201D0236A1843936823F430635C
:1021500003439360704B226870489A420DD1D0F8C7
:10216000880010F0030006D0012838D0022834D0AF
:10217000032821D135E001251FE0694B9A420BD19C
:10218000D0F8880010F00C0025D0042827D00828AB
:1021900023D00C2810D124E08A420DD1D0F8880039
:1021A00010F4406017D0B0F5806F18D0B0F5006F14
:1021B00013D0B0F5406F14D010255A4B00264FF4C1
:1021C00000408A4245D175B1022D0FD0042D0FD0A9
:1021D000082D18D10FE00025EFE70225EDE70425D3
:1021E000EBE70825E9E7FEF7DDFE03E0184602E02D
:1021F000FEF7FCFEA8B3626802EB4201814202D8FE
:10220000B0EB023F01D901276FE0DFF81C815DB11F
:10221000022D0CD0042D13D0082DF4D1500829051F
:10222000401846F1000105E0FEF7BCFE0AE0500848
:102230003E49F5E70023FDF7C5FFA0F5407150E0EA
:10224000FEF7D4FE6268010E0302500818187141AF
:10225000F0E7E1694FF6EF7881422FD1092DD2D214
:1022600000E042E0DFE805F006092005230505054A
:102270002600C8E7FEF796FE01E0FEF7A5FE410046
:10228000D4F8040001EB5001B1FBF0F080B2A0F1F2
:1022900010014145B7D84FF6F0710140C0F342003C
:1022A00001432068C16020E021496068EAE7FEF749
:1022B0009DFEE4E74FF480316068E3E7092DA2D288
:1022C000DFE805F0060918051E05050520009AE758
:1022D000FEF768FE16E0FEF777FE13E080B2A0F18D
:1022E000100141458FD82168C86026663846666669
:1022F000BDE8F081606803EB5001B1FBF0F0EDE761
:10230000FEF774FE616800EB5100B0FBF1F0E5E709
:1023100000800040F369FFEF0038014000100240E8
:10232000004400400024F400FFFC0F00000024F4EF
:102330000048E8012DE9F0479A4617460E46044644
:102340004FF000094FF02008089D39E0681C37D095
:10235000FEF7DCF8A0EB0A00A84222D80DB32068F3
:10236000016849072CD5C069C043000528D42168FD
:102370004FF4006008622068016821F4D0710160A8
:102380002068816821F001018160C4F87480C4F87C
:102390007880C4F87C8000BF84F870900320BDE88A
:1023A000F0872068016821F4D0710160206881689D
:1023B00021F001018160C4F87480C4F87880EBE7F3
:1023C0002068C06936EA000004D00020B842BDD0C1
:1023D0000020E4E70120F9E710B5142301220749A2
:1023E0000748FFF771FA0A23012204490548FFF75D
:1023F000E5FABDE810400248FFF716B900000020DA
:1024000060000020E00000200148FFF70DB9000047
:10241000E0000020FEE70907090E002804DB00F1B8
:10242000E02080F80014704700F00F0000F1E02079
:1024300080F8141D704702E008C8121F08C1002A66
:10244000FAD170477047002001E001C1121F002A35
:10245000FBD17047092801D8303000E03730C0B2D6
:102460007047000038B501780A463039092901D88B
:10247000017001E0373A02704178A1F13002092A77
:1024800001D8427001E0373941704178007800226C
:1024900001EB00100AA16C4609680A2300910AE0CA
:1024A00090FBF3F103FB110190FBF3F0C2F1020585
:1024B00030316155521C0028F2DC204638BD000046
:1024C00030303000A0B0FEF7D3FAFFF720FD142122
:1024D00017A8FDF7C4FEFE48C16C41F00101C164BC
:1024E000C16C01F001010091C16C41F00201C164B5
:1024F000C06CF84C00F00200009000220821204639
:10250000FDF7FEFF002601270820CDE91876179079
:1025100017A920461A96FDF71BFFFFF7D1FBFFF71F
:10252000EFFBFFF703FC731E0A22D021EA48FEF7F7
:10253000A3F800287ED008212046FDF7DAFFFA2014
:10254000FDF7F4FEE5A00A2300681E90E248012290
:102550001EA94C30FFF732FA0F208DF844000E20F0
:102560008DF80C0011208DF8100012208DF84C0011
:102570002D20DBA18DF87C00D1E90001CDE901011E
:1025800002208DF8340003208DF8480004208DF8D7
:1025900038008DF8146005208DF83C008DF8187017
:1025A00006208DF84000D0A0002500681C90CFA028
:1025B000182200681D90CEA0CEA10068169007A832
:1025C000FDF734FEC4484C300068016841F020013A
:1025D000016000220821BF48FDF792FFDFF82CA31D
:1025E00011AE0DF114080DF1180B0DAF4FF00A09E3
:1025F0004C46012311AAD021B748CDF80090FEF730
:1026000067F90123721CD121B3480094FEF7CAF880
:102610009DF8450040077ED4012303AAD021AE488F
:102620000094FEF755F901230DF10D02D121AA48BE
:10263000009400E051E0FEF7B5F89DF80D0002238C
:1026400040F020008DF80D0003AAD021A24800948C
:10265000FEF73EF9012304AAD0219F480094FEF71B
:1026600037F901230DF11102D1219B480094FEF7A7
:1026700099F8012313AAD02197480094FEF728F96E
:1026800001230DF14D02D12193480094FEF78AF801
:102690009DF811000009FFF7DDFE8DF854009DF84C
:1026A000110000F00F00FFF7D5FE8DF8550015A8BA
:1026B000FFF7D8FE01788DF8041041788DF80510E9
:1026C00080788DF806009DF84D0090B1402815D017
:1026D000802815D0C0281ED117E0012508212046EA
:1026E000FDF707FFFA20FDF721FE6D1C0A2DF5DD31
:1026F00028E730208DF808000BE00CE0322005E0E0
:1027000035208DF80800302003E037208DF80800D0
:1027100035208DF80900012310AAD0216E480094BD
:10272000FEF7D6F801230DF14102D1216A48009449
:10273000FEF738F89DF841000009FFF78BFE8DF891
:102740002E009DF8410000F00F00FFF783FE8DF88A
:102750002F0001230FAAD0215F480094FEF7B8F89C
:1027600001230DF13D02D1215B480094FEF71AF8D8
:102770009DF83D00C0F30010FFF76CFE8DF82B00B4
:102780009DF83D0000F00F00FFF764FE8DF82C006F
:1027900001230EAAD02150480094FEF799F8012396
:1027A0000DF13902D1214C480094FDF7FBFF9DF853
:1027B00039000009FFF74EFE8DF828009DF839001A
:1027C00000F00F00FFF746FE8DF82900012312AA42
:1027D000D02141480094FEF77BF801230DF1490216
:1027E000D1213D480094FDF7DDFF9DF8490000F040
:1027F0000F00FFF72FFE8DF82600012305AAD02138
:1028000035480094FEF764F8012308F10102D12154
:1028100031480094FDF7C6FF9DF815000009FFF749
:1028200019FE8DF822009DF8150000F00F00FFF74B
:1028300011FE8DF82300012306AAD021264800941A
:10284000FEF746F801230BF10102D1212248009442
:10285000FDF7A8FF9DF819000009FFF7FBFD8DF8B3
:102860001F009DF8190000F00F00FFF7F3FD8DF831
:10287000200001230DAAD02117480094FEF728F864
:1028800001237A1CD12114480094FDF78BFF9DF899
:102890003500C0F30010FFF7DDFD8DF81C009DF83A
:1028A000350000F00F00FFF7D5FD8DF81D009AF8F8
:1028B000000054464E283DD04D2843D0462843D0F2
:1028C00050284FD045287FF493AE002D20E0000023
:1028D0000010024000040048140000202100000005
:1028E0003030302E30300D0A0D0A0000460D0A003F
:1028F0003A09000000003A00003A000020203109A7
:1029000000002F00002F00000D0A00000000002032
:102910003FF46EAE0A23022216A92148FFF74EF8B3
:102920000A23162207A91E48FFF748F82020207026
:1029300000255DE60A2302221CA91948FFF73EF88C
:10294000012208E0012553E60A2303221DA91448A9
:10295000FFF734F8002208211248FDF7D1FD2020AE
:10296000207045E60A23022216A90D48FFF726F833
:102970009DF81100000605D5642301221FA908480F
:10298000FFF71CF89DF804004FF00A03302802D02E
:10299000082201A9C7E707220DF10501C3E70000DE
:1029A000E0000020000400480000000000000000DB
:1029B0000102030406070809A0860100400D030078
:1029C000801A060000350C0040420F0080841E0073
:1029D00000093D0000127A000024F40000366E0168
:1029E0000048E801006CDC02000000000102030462
:1029F000102A0008000000201400000036240008FF
:102A0000242A0008140000204C0500004624000879
:102A100000000000100000000100000000000000A5
:042A200000093D006C
:040000050800018D61
:00000001FF
